{
  "_format": "hh-sol-artifact-1",
  "contractName": "Test",
  "sourceName": "contracts/events.sol",
  "abi": [
    {
      "inputs": [],
      "stateMutability": "nonpayable",
      "type": "constructor"
    },
    {
      "anonymous": false,
      "inputs": [
        {
          "indexed": true,
          "internalType": "address",
          "name": "member",
          "type": "address"
        },
        {
          "indexed": true,
          "internalType": "address",
          "name": "memadd",
          "type": "address"
        }
      ],
      "name": "memberAdded",
      "type": "event"
    },
    {
      "anonymous": false,
      "inputs": [
        {
          "indexed": true,
          "internalType": "address",
          "name": "memfrom",
          "type": "address"
        },
        {
          "indexed": true,
          "internalType": "address",
          "name": "member",
          "type": "address"
        }
      ],
      "name": "memberFound",
      "type": "event"
    },
    {
      "anonymous": false,
      "inputs": [
        {
          "indexed": true,
          "internalType": "address",
          "name": "member",
          "type": "address"
        },
        {
          "indexed": true,
          "internalType": "address",
          "name": "memrem",
          "type": "address"
        }
      ],
      "name": "memberRemoved",
      "type": "event"
    },
    {
      "anonymous": false,
      "inputs": [
        {
          "indexed": true,
          "internalType": "address",
          "name": "owner",
          "type": "address"
        }
      ],
      "name": "ownerChanged",
      "type": "event"
    },
    {
      "inputs": [
        {
          "internalType": "address",
          "name": "_add",
          "type": "address"
        }
      ],
      "name": "addMember",
      "outputs": [],
      "stateMutability": "nonpayable",
      "type": "function"
    },
    {
      "inputs": [
        {
          "internalType": "address",
          "name": "_new",
          "type": "address"
        }
      ],
      "name": "changeOwner",
      "outputs": [],
      "stateMutability": "nonpayable",
      "type": "function"
    },
    {
      "inputs": [
        {
          "internalType": "address[]",
          "name": "_arr",
          "type": "address[]"
        },
        {
          "internalType": "address",
          "name": "_check",
          "type": "address"
        }
      ],
      "name": "checkMember",
      "outputs": [
        {
          "internalType": "uint256",
          "name": "",
          "type": "uint256"
        }
      ],
      "stateMutability": "nonpayable",
      "type": "function"
    },
    {
      "inputs": [],
      "name": "getMembers",
      "outputs": [
        {
          "internalType": "address[]",
          "name": "",
          "type": "address[]"
        }
      ],
      "stateMutability": "view",
      "type": "function"
    },
    {
      "inputs": [],
      "name": "owner",
      "outputs": [
        {
          "internalType": "address",
          "name": "",
          "type": "address"
        }
      ],
      "stateMutability": "view",
      "type": "function"
    },
    {
      "inputs": [
        {
          "internalType": "address",
          "name": "_rem",
          "type": "address"
        }
      ],
      "name": "removeMember",
      "outputs": [],
      "stateMutability": "nonpayable",
      "type": "function"
    }
  ],
  "bytecode": "0x608060405234801561001057600080fd5b50336000806101000a81548173ffffffffffffffffffffffffffffffffffffffff021916908373ffffffffffffffffffffffffffffffffffffffff160217905550610dd2806100606000396000f3fe608060405234801561001057600080fd5b50600436106100625760003560e01c80630b1ca49a146100675780631d043a58146100835780638da5cb5b146100b35780639eab5253146100d1578063a6f9dae1146100ef578063ca6d56dc1461010b575b600080fd5b610081600480360381019061007c91906107f3565b610127565b005b61009d60048036038101906100989190610979565b610323565b6040516100aa91906109ee565b60405180910390f35b6100bb610412565b6040516100c89190610a18565b60405180910390f35b6100d9610436565b6040516100e69190610af1565b60405180910390f35b610109600480360381019061010491906107f3565b610501565b005b610125600480360381019061012091906107f3565b610615565b005b60006101f6600160003373ffffffffffffffffffffffffffffffffffffffff1673ffffffffffffffffffffffffffffffffffffffff1681526020019081526020016000208054806020026020016040519081016040528092919081815260200182805480156101eb57602002820191906000526020600020905b8160009054906101000a900473ffffffffffffffffffffffffffffffffffffffff1673ffffffffffffffffffffffffffffffffffffffff16815260200190600101908083116101a1575b505050505083610323565b90506000810361023b576040517f08c379a000000000000000000000000000000000000000000000000000000000815260040161023290610b70565b60405180910390fd5b600160003373ffffffffffffffffffffffffffffffffffffffff1673ffffffffffffffffffffffffffffffffffffffff1681526020019081526020016000206001826102879190610bbf565b8154811061029857610297610bf3565b5b9060005260206000200160006101000a81549073ffffffffffffffffffffffffffffffffffffffff02191690558173ffffffffffffffffffffffffffffffffffffffff163373ffffffffffffffffffffffffffffffffffffffff167f5e92c8a5e0422e60c111dd6b46ce81e212b0d3d5ab8ae261c998d1f939a9965560405160405180910390a35050565b6000808351905060005b81811015610405578373ffffffffffffffffffffffffffffffffffffffff1685828151811061035f5761035e610bf3565b5b602002602001015173ffffffffffffffffffffffffffffffffffffffff16036103f2578373ffffffffffffffffffffffffffffffffffffffff163373ffffffffffffffffffffffffffffffffffffffff167f02b25f7ce13fca97025ee7bfbef37376a362905de48615465042afa645c68d5660405160405180910390a36001816103e99190610c22565b9250505061040c565b80806103fd90610c56565b91505061032d565b5060009150505b92915050565b60008054906101000a900473ffffffffffffffffffffffffffffffffffffffff1681565b6060600160003373ffffffffffffffffffffffffffffffffffffffff1673ffffffffffffffffffffffffffffffffffffffff1681526020019081526020016000208054806020026020016040519081016040528092919081815260200182805480156104f757602002820191906000526020600020905b8160009054906101000a900473ffffffffffffffffffffffffffffffffffffffff1673ffffffffffffffffffffffffffffffffffffffff16815260200190600101908083116104ad575b5050505050905090565b60008054906101000a900473ffffffffffffffffffffffffffffffffffffffff1673ffffffffffffffffffffffffffffffffffffffff163373ffffffffffffffffffffffffffffffffffffffff161461058f576040517f08c379a000000000000000000000000000000000000000000000000000000000815260040161058690610cea565b60405180910390fd5b806000806101000a81548173ffffffffffffffffffffffffffffffffffffffff021916908373ffffffffffffffffffffffffffffffffffffffff1602179055508073ffffffffffffffffffffffffffffffffffffffff167f69da2a44876db3ae56f9e9a5e1cc04bec1277016e48a67f5419ba27139bc7c0860405160405180910390a250565b600073ffffffffffffffffffffffffffffffffffffffff168173ffffffffffffffffffffffffffffffffffffffff1603610684576040517f08c379a000000000000000000000000000000000000000000000000000000000815260040161067b90610d7c565b60405180910390fd5b600160003373ffffffffffffffffffffffffffffffffffffffff1673ffffffffffffffffffffffffffffffffffffffff168152602001908152602001600020819080600181540180825580915050600190039060005260206000200160009091909190916101000a81548173ffffffffffffffffffffffffffffffffffffffff021916908373ffffffffffffffffffffffffffffffffffffffff1602179055508073ffffffffffffffffffffffffffffffffffffffff163373ffffffffffffffffffffffffffffffffffffffff167fea3a5f75961d101b80ec9dac6817f511977ec75ace2adcf99d21985f9775d16f60405160405180910390a350565b6000604051905090565b600080fd5b600080fd5b600073ffffffffffffffffffffffffffffffffffffffff82169050919050565b60006107c082610795565b9050919050565b6107d0816107b5565b81146107db57600080fd5b50565b6000813590506107ed816107c7565b92915050565b6000602082840312156108095761080861078b565b5b6000610817848285016107de565b91505092915050565b600080fd5b6000601f19601f8301169050919050565b7f4e487b7100000000000000000000000000000000000000000000000000000000600052604160045260246000fd5b61086e82610825565b810181811067ffffffffffffffff8211171561088d5761088c610836565b5b80604052505050565b60006108a0610781565b90506108ac8282610865565b919050565b600067ffffffffffffffff8211156108cc576108cb610836565b5b602082029050602081019050919050565b600080fd5b60006108f56108f0846108b1565b610896565b90508083825260208201905060208402830185811115610918576109176108dd565b5b835b81811015610941578061092d88826107de565b84526020840193505060208101905061091a565b5050509392505050565b600082601f8301126109605761095f610820565b5b81356109708482602086016108e2565b91505092915050565b600080604083850312156109905761098f61078b565b5b600083013567ffffffffffffffff8111156109ae576109ad610790565b5b6109ba8582860161094b565b92505060206109cb858286016107de565b9150509250929050565b6000819050919050565b6109e8816109d5565b82525050565b6000602082019050610a0360008301846109df565b92915050565b610a12816107b5565b82525050565b6000602082019050610a2d6000830184610a09565b92915050565b600081519050919050565b600082825260208201905092915050565b6000819050602082019050919050565b610a68816107b5565b82525050565b6000610a7a8383610a5f565b60208301905092915050565b6000602082019050919050565b6000610a9e82610a33565b610aa88185610a3e565b9350610ab383610a4f565b8060005b83811015610ae4578151610acb8882610a6e565b9750610ad683610a86565b925050600181019050610ab7565b5085935050505092915050565b60006020820190508181036000830152610b0b8184610a93565b905092915050565b600082825260208201905092915050565b7f596f7520686176656e27742061646465642074686973206d656d626572000000600082015250565b6000610b5a601d83610b13565b9150610b6582610b24565b602082019050919050565b60006020820190508181036000830152610b8981610b4d565b9050919050565b7f4e487b7100000000000000000000000000000000000000000000000000000000600052601160045260246000fd5b6000610bca826109d5565b9150610bd5836109d5565b9250828203905081811115610bed57610bec610b90565b5b92915050565b7f4e487b7100000000000000000000000000000000000000000000000000000000600052603260045260246000fd5b6000610c2d826109d5565b9150610c38836109d5565b9250828201905080821115610c5057610c4f610b90565b5b92915050565b6000610c61826109d5565b91507fffffffffffffffffffffffffffffffffffffffffffffffffffffffffffffffff8203610c9357610c92610b90565b5b600182019050919050565b7f596f7520617265206e6f7420746865206f776e65722e00000000000000000000600082015250565b6000610cd4601683610b13565b9150610cdf82610c9e565b602082019050919050565b60006020820190508181036000830152610d0381610cc7565b9050919050565b7f5468697320616464726573732063616e27742062652061646465642c2061646460008201527f20612076616c696420616464726573732e000000000000000000000000000000602082015250565b6000610d66603183610b13565b9150610d7182610d0a565b604082019050919050565b60006020820190508181036000830152610d9581610d59565b905091905056fea2646970667358221220c233dbb80ffb055d946df63b351caec4a1c4026a6685b4515a605dd8a651d4cb64736f6c63430008120033",
  "linkReferences": {},
  "deployedLinkReferences": {}
}